:020000040800F2
:1000000028080020A9040008F5010008F7010008ED
:10001000FB010008FF0100080302000800000000C7
:1000200000000000000000000000000007020008BF
:1000300009020008000000000B020008C1040008CB
:10004000C3040008C3040008C3040008C304000874
:10005000C3040008C3040008C3040008C304000864
:10006000C3040008C3040008C3040008C304000854
:10007000C3040008C3040008C3040008C304000844
:10008000C3040008C3040008C3040008C304000834
:10009000C3040008C3040008C3040008C304000824
:1000A000C3040008C3040008C3040008C304000814
:1000B000C3040008C3040008C3040008C304000804
:1000C000C3040008C3040008C3040008C3040008F4
:1000D000C3040008C3040008C3040008AD070008F7
:1000E000C3040008C3040008C304000800000000A3
:1000F0000000000000000000000000000000000000
:100100000000000000000000C3040008C304000851
:10011000C304000821060008C3040008C304000843
:10012000C3040008C3040008C3040008C304000893
:10013000C3040008C3040008C3040008C304000883
:10014000C3040008C3040008C3040008C304000873
:1001500000F002F800F03AF80AA090E8000C82449F
:100160008344AAF10107DA4501D100F02FF8AFF27C
:10017000090EBAE80F0013F0010F18BFFB1A43F085
:1001800001031847C8190000E8190000103A24BFFD
:1001900078C878C1FAD8520724BF30C830C144BFEC
:1001A00004680C607047000000230024002500262E
:1001B000103A28BF78C1FBD8520728BF30C148BFCA
:1001C0000B6070471FB51FBD10B510BD01F08DFC51
:1001D0001146FFF7F7FF00F008F801F0ABFC03B49D
:1001E000FFF7F2FF03BC01F0ABFC10B500F00EF816
:1001F000002010BD704700BFFEE700BFFEE700BF54
:10020000FEE700BFFEE770477047704710B500F08B
:10021000B2F900F04FFA00F09FFB00F055FC00200F
:1002200010BD00000CB500200190009092480068BD
:1002300040F480309049086000BF8F48006800F4A7
:10024000003000900198401C0190009818B9019866
:10025000B0F5A06FF1D18848006800F4003010B10B
:100260000120009001E000200090009801285CD15E
:100270008248006840F01000804908600846006825
:1002800020F0030008600846006840F002000860A3
:1002900079484068784948600846406848600846A0
:1002A000406840F4806048600846C06A744908406D
:1002B0007149C8620846C06A724908436E49C862FB
:1002C0000846006840F08060086000BF6A48006827
:1002D00000F000600028F9D06748406820F47C10E6
:1002E000654948600846406840F4E81048600846A0
:1002F000006840F08070086000BF5F48006800F050
:1003000000700028F9D05C48406820F003005A498A
:1003100048600846406840F00200486000BF564808
:10032000406800F00C000828F9D10CBD10B5FFF7AB
:1003300079FF10BD10B55048006840F001004E49EB
:10034000086008464068504908404B4948600846E4
:1003500000684E490840484908600846006820F493
:10036000802008600846406820F4FE004860084687
:10037000006820F0A05008604FF47F0088600020E3
:10038000C862FFF7D3FF4FF000604149086010BD1D
:10039000F0B50021002000230024002200250026C3
:1003A000354F7F6807F00C0121B1042908D00829D6
:1003B0004BD10BE0374FDFF8E0C0CCF800704AE0DB
:1003C000364FDFF8D4C0CCF8007044E02A4F7F6885
:1003D00007F47010284F7F6807F48033800C0D28D5
:1003E00001D0801C00E0062033B92D4F4743DFF8D1
:1003F000A8C0CCF8007027E01F4FFF6A07F48034D4
:100400001D4FFF6A07F00F077A1C44B9234FB7FB53
:10041000F2F74743DFF880C0CCF8007014E0164FC5
:10042000FF6AC7F303177D1C134FFF6AC7F3032747
:10043000BE1C1A4FB7FBF5F77743B7FBF2F74743FC
:10044000DFF854C0CCF8007005E0124FDFF848C068
:10045000CCF8007000BF00BF074F7F68C7F30317D9
:10046000DFF840C01CF807100B4F3F68CF40DFF8A3
:1004700028C0CCF80070F0BD0010024000200240FF
:1004800000F0FEFF440601000000FFF0FFFFF6FE53
:1004900008ED00E000127A000000002040787D01A5
:1004A00000093D0004000020094880470948004732
:1004B000FEE7FEE7FEE7FEE7FEE7FEE7FEE7FEE714
:1004C000FEE7FEE704480549054A064B7047000071
:1004D00035030008510100082802002028080020E8
:1004E0002804002028040020704755490860704700
:1004F00070B505460E46002402205249086000BF30
:100500000CE0295D504801F01FFA00BF80214E48E1
:1005100001F09EFA0028F9D0601CC4B2B442F0DBAE
:1005200002204849091D086070BD08B54FF4E0601D
:1005300000F00AFB35208DF8000004208DF8020041
:1005400001208DF80300684600F003FB08BD08B5E4
:100550000121202001F057F803208DF8020010201F
:100560008DF803000220ADF80000694635481038C8
:1005700000F0E0FC08BD00B585B00121312001F09C
:1005800042F80121080501F04BF84FF48050ADF816
:10059000100018208DF8130003208DF8120004A914
:1005A0002A4800F0C7FC0420ADF810008DF81300B5
:1005B00004A92448103800F0BDFC4FF416500090F8
:1005C0000020ADF80400ADF80600ADF80800ADF865
:1005D0000C000C20ADF80A0069461B4801F0BBF87E
:1005E000012240F22441184801F04DF9012240F265
:1005F0002551154801F047F90121134801F037F959
:100600004021114801F01BFAFFF7A1FFFFF78DFF12
:100610000F491048C16010480E49886005B000BD00
:1006200010B540F22551084801F012FA38B10648D9
:1006300001F08EF9C4B2204601490968884710BD0F
:100640001400002010140140005000400010014030
:10065000F1040008D4000020EB0400087047694949
:100660000860704770B505460E46002400BF0CE0D8
:10067000295D654801F068F900BF8021624801F0FA
:10068000E7F90028F9D0601CC4B2B442F0DB70BDB9
:1006900008B54FF4E06000F057FA27208DF800000D
:1006A00002208DF8020001208DF80300684600F05A
:1006B00050FA08BD00B591B00121212000F0A3FF40
:1006C0000121880400F0ACFF0121084600F08EFFF4
:1006D0004FF48070ADF8400018208DF843000320DF
:1006E0008DF8420010A9494800F024FC4FF4007036
:1006F000ADF8400004208DF8430010A9434800F0F5
:1007000019FC10A9414800F015FC4FF416500C904C
:100710000020ADF83400ADF83600ADF83800ADF883
:100720003C000C20ADF83A000CA9374801F013F852
:10073000012240F22441344801F0A5F8012240F2A0
:100740002551314801F09FF801212F4801F08FF821
:1007500040212D4801F073F9FFF79AFF2C4800F073
:1007600061FA2C4801902C48029000200390C82088
:1007700004900020059080200690002007900890AB
:1007800009904FF480500A9000200B9001A9204856
:1007900000F0EAFA01211E4800F011FB1F49204831
:1007A000C16020481E49886011B000BD10B500240A
:1007B00040F224411748001F01F04AF900B31548E0
:1007C000001F01F0C5F8124800F010FBC0F1C8008E
:1007D00084B2E1B210480B4A1268904740F22441BB
:1007E0000C48001F01F05EF90021094800F0E7FA0B
:1007F000C821074800F0F8FA0121054800F0DFFAA7
:1008000010BD000018000020004800400014014006
:100810003000024004380140FC000020650600085A
:10082000D40000205F060008002000E0401C0528DE
:10083000FCD3704770B5044600251DE004F080002D
:1008400020B14FF400506849086004E04FF40050B4
:100850006549091D0860FFF7E7FF4FF480406249D2
:1008600008606006040EFFF7DFFF4FF480405E492A
:10087000091D0860681CC5B2082DDFDBFFF7D4FF37
:1008800070BD70B5002400251AE06006040E4FF418
:1008900080515548103800F0DEFB012801D1601C62
:1008A000C4B24FF4804050490860FFF7BDFF4FF4D9
:1008B00080404D49091D0860FFF7B6FF681CC5B2AE
:1008C000082DE2DB204670BD70B5044600251DE012
:1008D00004F0800020B14FF400504349086004E068
:1008E0004FF400504049091D08604FF480403E49D4
:1008F000091D08606006040EFFF796FF4FF4804064
:1009000039490860FFF790FF681CC5B2082DDFDB8E
:1009100070BD70B5002400251AE04FF480403249C4
:10092000091D0860FFF780FF6006040E4FF4805138
:100930002D48103800F08FFB012801D1601CC4B293
:100940004FF4804028490860FFF76EFF681CC5B26D
:10095000082DE2DB204670BD08B50121082000F01B
:1009600052FE03208DF8020010208DF80300800253
:10097000ADF8000069461C48103800F0DBFA4FF46F
:100980000050ADF8000069461748103800F0D2FA60
:100990004FF40040ADF8000069461348103800F0ED
:1009A000C9FA48208DF803004FF48050ADF80000DC
:1009B00069460D48103800F0BDFA0C490C48C16179
:1009C0000C4981610C4941610C480949086108BD25
:1009D00028B94FF48041044A121D116003E04FF41E
:1009E0008041014A11607047100C01401309000852
:1009F000D4000020C9080008830800083508000852
:100A0000704710B5484A1278132A00DD10BD002245
:100A1000464B454C247803F834201A46424B1B7849
:100A200002EBC3025070414A3F4B1B7802EBC302FA
:100A300090703E4A3C4B1B7802EBC302516000BFF2
:100A4000E4E7002020E0394901EBC0014978C9B151
:100A5000364901EBC0014978491E344A02EBC00215
:100A60005170324901EBC001497859B92F4901EB66
:100A7000C00189782D4A02EBC002517001212B4A36
:100A800002F83010411CC8B2274909788842DADBE5
:100A9000704710B500240EE0244810F8340040B12F
:100AA000224901EBC4014868804700201F4901F832
:100AB0003400601CC4B21C4800788442ECDB10BDDA
:100AC00010B5FFF7BEFF10BD30B5194800686422AD
:100AD000B0FBF2F1B1F1807F00D31DE021F07F4047
:100AE000401E4FF0E022506150170F22002807DA15
:100AF00013071D0E0F4B00F00F04241F1D5503E0BC
:100B000013071C0E0C4B1C5400BF00204FF0E022BA
:100B100090610720106100BF08480949086209492F
:100B20000748416230BD00001C000020200000206A
:100B30000000002018ED00E000E400E0030A0008D7
:100B4000D4000020930A000831490143314A116062
:100B5000704770B5002100230F22C4780CB32D4CD0
:100B6000246804F4E064C4F5E064210AC1F10403DC
:100B7000CA40447804FA03F18478144021430901FF
:100B8000254C0678A155047804F01F050124AC40DB
:100B900005786D114FF0E02606EB8505C5F800419C
:100BA00009E0047804F01F050124AC401B4D0678D1
:100BB000761145F8264070BD194A0A400243154B8C
:100BC0001B1F1A60704739B1124A121D1268024386
:100BD000104B1B1D1A6006E00E4A121D126882435C
:100BE0000C4B1B1D1A607047042808D14FF0E02100
:100BF000096941F004014FF0E022116107E04FF074
:100C0000E021096921F004014FF0E02211617047F1
:100C10000000FA050CED00E000E400E080E100E0F7
:100C200080FFFF1F01684FF6FE7211400160002136
:100C3000016041608160C1608C49884208D18B4964
:100C40000839496841F00F01884A083A51608AE042
:100C500086491431884208D184490839496841F0ED
:100C6000F001824A083A51607DE08049283188428B
:100C700008D17E490839496841F470617B4A083AD5
:100C8000516070E079493C31884208D17749083990
:100C9000496841F47041754A083A516063E073490C
:100CA0005031884208D171490839496841F47021AE
:100CB0006E4A083A516056E06C496431884208D166
:100CC0006A490839496841F47001684A083A516034
:100CD00049E066497831884208D164490839496851
:100CE00041F07061614A083A51603CE060498842D5
:100CF00006D1011F096841F00F01021F116032E0A7
:100D00005B491431884208D15949091F096841F0EB
:100D1000F001574A121F116025E0554928318842D9
:100D200008D15349091F096841F47061504A121FE4
:100D3000116018E04E493C31884208D14C49091FE6
:100D4000096841F470414A4A121F11600BE048499A
:100D50005031884207D14649091F096841F4702182
:100D6000434A121F1160704710B50022026847F60F
:100D7000F0739A430C6A8B6823430C6923434C69D4
:100D800023438C692343CC6923434C6A23438C6AF5
:100D900023431A430260CB6843600B6883604B684F
:100DA000C36010BD0021016041608160C1600161CC
:100DB00041618161C161016241628162704721B11B
:100DC000026842F00102026004E002684FF6FE731E
:100DD0001A40026070471AB103680B43036002E0D7
:100DE00003688B4303607047416070470146486861
:100DF00080B2704701460020002211F0805F03D0CE
:100E00001B4B083B1A6802E0184B083B1A680A4261
:100E100001D0012000E00020704710F0805F03D077
:100E20001349091F086002E01049083948607047FB
:100E300001460020002211F0805F03D00C4B083BDC
:100E40001A6802E0094B083B1A680A4201D00120E7
:100E500000E00020704710F0805F03D00449091FB4
:100E6000086002E001490839486070470800024004
:100E70000804024010B50446CA48844208D1012142
:100E8000042000F0E7FB0021042000F0E3FB46E033
:100E9000C548844208D10121082000F0DBFB002175
:100EA000082000F0D7FB3AE0C048844208D1012175
:100EB000102000F0CFFB0021102000F0CBFB2EE033
:100EC000BB48844208D10121202000F0C3FB00214F
:100ED000202000F0BFFB22E0B648844208D1012167
:100EE000402000F0B7FB0021402000F0B3FB16E0EB
:100EF000B148844208D10121802000F0ABFB0021E1
:100F0000802000F0A7FB0AE0AC48844207D1012111
:100F1000801500F09FFB0021A01500F09BFB10BD89
:100F200010B50121084600F095FB0021012000F0DA
:100F300091FB10BD2DE9F04102460025002600205E
:100F400000230024002791F803C00CF00F0591F84E
:100F500003C01CF0100F03D091F802C04CEA050545
:100F600091F800C0BCF1000F31D0146800202BE0D4
:100F70004FF0010C0CFA00F3B1F800C00CEA0306C4
:100F80009E4220D183004FF00F0C0CFA03F7BC43B4
:100F900005FA03FC4CEA040491F803C0BCF1280FE5
:100FA00006D14FF0010C0CFA00FCC2F814C00AE0A4
:100FB00091F803C0BCF1480F05D14FF0010C0CFAB9
:100FC00000FCC2F810C0401C0828D1D31460B1F84E
:100FD00000C0BCF1FF0F34DD546800202EE000F1AA
:100FE000080C4FF0010808FA0CF3B1F800C00CEA45
:100FF00003069E4221D183004FF00F0C0CFA03F739
:10100000BC4305FA03FC4CEA040491F803C0BCF1AC
:10101000280F05D100F1080C08FA0CF8C2F814806A
:1010200091F803C0BCF1480F07D100F1080C4FF054
:10103000010808FA0CF8C2F81080401C0828CED32A
:101040005460BDE8F0814FF6FF710180022181708C
:101050000421C17070470246002093680B4201D002
:10106000012000E0002070470146886880B2704788
:1010700002460020D3680B4201D0012000E000208E
:1010800070470146C86880B270470161704741618E
:1010900070470AB1016100E041617047C16070476B
:1010A0004FF480320A438261816182618269826980
:1010B000704702460020424B18684FF68073184074
:1010C00040EA021008433E4B186070473D49C86132
:1010D0007047F0B50A46002300240021002500F0E7
:1010E0000046B6F1004F02D1354EF16901E0344EB1
:1010F0007168C0F3034583B200F44016B6F5401F93
:1011000008D121F070612E4E766826F070662C4F63
:101110007E6012E000F48016B6F5801F06D103262B
:1011200006FA05F4A14341F0706106E0460D360170
:1011300003FA06F6B14341F0706122B1460D360163
:1011400003FA06F6314300F00046B6F1004F02D133
:101150001B4EF16101E01A4E7160F0BD30B5002206
:101160008B071C0F0F2303FA04F2154B08338C1066
:1011700053F824309343124C08348D1044F8253032
:1011800023468C1053F824308C07240F00FA04F403
:1011900023430B4C08348D1044F8253030BD0A49E8
:1011A0000860704700080140000C01400010014039
:1011B0000014014000180140001C014000200140C3
:1011C0000000014000002042DC002042F948006895
:1011D00040F00100F749086008464068F6490840B9
:1011E000F449486008460068F4490840F14908603D
:1011F0000846006820F4802008600846406820F413
:10120000FE0048600846006820F0A05008604FF4D7
:101210007F0088600020C8627047E649096821F4B1
:101220008031E44A11601146096821F4802111607F
:10123000B0F5803F03D0B0F5802F0ED106E0DD4938
:10124000096841F48031DB4A116007E0D949096837
:1012500041F4A021D74A116000E000BF00BF7047F1
:1012600010B501460022002300204A11012A02D1B4
:10127000D04C236806E0022A02D1CE4C236A01E05A
:10128000CC4C636A01F01F02012494401C4201D03F
:10129000012000E0002010BD38B50020009000249F
:1012A000002500BF3120FFF7DBFF05460098401CFA
:1012B00000900098B0F5A06F01D0002DF2D0312041
:1012C000FFF7CEFF08B1012400E00024204638BD1E
:1012D00001460020B74A106820F0F80040EAC1003B
:1012E00010607047B6490860704702460020B14B55
:1012F000586820F4741042EA01031843AD4B58605B
:101300007047AF490866704702460020A94BD86A6B
:10131000AC4B184042EA01031843A64BD862704711
:1013200001460020A34AD06A20F0F0000843D062B2
:101330007047014600209F4AD06A20F4706008433D
:10134000D06270479E498866704701460020994ADE
:10135000D06A20F470400843D0627047984908670B
:10136000704701460020934A506820F0030008436C
:10137000506070478F48406800F00C00704701468D
:1013800000208C4A506820F0F000084350607047FD
:1013900001460020874A506820F4E060084350600E
:1013A000704701460020834A506820F4605040EAAC
:1013B000C1005060704729B17E4A527A02437D4B8A
:1013C0005A7204E07B4A527A82437A4B5A727047CF
:1013D0007D490860704701460020764A506820F435
:1013E000404008435060704778490860704777492B
:1013F000091D086070470021754A11706D4A82F816
:101400002010012802D0042808D103E00121704AED
:10141000117004E005216E4A117000E000BF00BFAA
:1014200070476C49086070476249096A0143614A24
:101430001162704767494439086070472DE9F041EF
:1014400000210022002500230026002400278C46CE
:10145000DFF86081D8F8048008F00C0121B104297C
:1014600007D0082959D109E0DFF86C81C0F8008065
:1014700058E0DFF86881C0F8008053E0DFF834817D
:10148000D8F8048008F47012DFF82881D8F80480B6
:1014900008F48035920C0D2A01D0921C00E006223F
:1014A00035B9DFF83C8102FB08F8C0F8008033E072
:1014B000DFF80081D8F82C8008F48036DFF8F4805B
:1014C000D8F82C8008F00F0808F1010446B9DFF8BD
:1014D0000C81B8FBF4F808FB02F8C0F800801BE0B0
:1014E000DFF8D080D8F82C80C8F3031808F1010782
:1014F000DFF8C080D8F82C80C8F3032808F1020C6C
:10150000DFF8D880B8FBF7F808FB0CF8B8FBF4F864
:1015100008FB02F8C0F8008004E0DFF8BC80C0F8E7
:10152000008000BF00BFDFF88C80D8F8048008F08E
:10153000F0010909DFF8AC8018F80130D0F800801C
:1015400028FA03F8C0F80480DFF86880D8F804802F
:1015500008F4E061090ADFF88C8018F80130D0F84F
:10156000048028FA03F8C0F80880DFF84880D8F82B
:10157000048008F46051C90ADFF8688018F8013067
:10158000D0F8048028FA03F8C0F80C80DFF8248033
:10159000D8F8048008F44041890BDFF84C8018F833
:1015A0000130D0F80C80B8FBF3F8C0F81080BDE82B
:1015B000F0810000001002400000FFF0FFFFF6FE87
:1015C00000004242F0FFFEFFD8004242C405424202
:1015D000201002408004424200127A0040787D01CF
:1015E00000093D00C0000020D000002029B1354A8C
:1015F00052690243334B5A6104E0324A52698243D2
:10160000304B5A61704729B12E4A926902432D4BE3
:101610009A6104E02B4A926982432A4B9A6170478F
:1016200029B1284AD2690243264BDA6104E0254AEF
:10163000D2698243234BDA61704729B1214A926A09
:101640000243204B9A6204E01E4A926A82431D4B79
:101650009A62704729B11B4AD2680243194BDA607B
:1016600004E0184AD2688243164BDA60704729B109
:10167000144A12690243134B1A6104E0114A1269B9
:101680008243104B1A6170470F49086070470F4939
:10169000C86470470B49C87170470A48406A40F0F7
:1016A000807008494862704701460020054A9268E8
:1016B0000A4201D0012000E00020704701498872F1
:1016C00070470000001002404004424200004242C5
:1016D00010B50446FB48844209D101218803FFF775
:1016E000B9FF00214FF48040FFF7B4FF32E0F64825
:1016F000844209D101214804FFF7B9FF00214FF4CA
:101700000030FFF7B4FF25E0F048844209D1012101
:101710008804FFF7ACFF00214FF48020FFF7A7FFFC
:1017200018E0EB48844209D10121C804FFF79FFF6C
:1017300000214FF40020FFF79AFF0BE0E5488442B8
:1017400008D101210805FFF792FF00214FF4801016
:10175000FFF78DFF10BD2DE9F04786B005460E4618
:101760000024A24600BFA1460027B08900B100BFF7
:101770002F462C8A4CF6FF700440F08804432C82DC
:10178000AC894EF6F3100440B08831890843718962
:1017900008430443AC81AC8A4FF6FF400440B08953
:1017A0000443AC8201A8FFF749FEC648874202D134
:1017B000DDF810A001E0DDF80CA0A88910F4004FBE
:1017C00008D00AEBCA0000EB0A1031684900B0FBF0
:1017D000F1F807E00AEBCA0000EB0A103168890053
:1017E000B0FBF1F86420B8FBF0F00401200964219B
:1017F00001FB1089A88910F4004F08D0322000EBBB
:10180000C900B0FBF1F000F00700044308E032200B
:1018100000EB09106421B0FBF1F000F00F0004436D
:101820002C8106B0BDE8F0874FF41651016000210D
:101830008180C18001810C2141810021818170471B
:1018400010B502460020108A4FF2FF0318400B88A3
:101850004C8823438C882343CC882343184310822D
:1018600010BD0021018041808180C180704721B17D
:10187000828942F40052828104E082894DF6FF732E
:101880001A4082817047F0B50346002400260025E7
:101890000020A1F510676A3F00D100BF1846C1F3D0
:1018A000421401F01F06012707FA06F5012C01D1A9
:1018B0000C3004E0022C01D1103000E014301AB1D9
:1018C00007682F43076002E00768AF430760F0BD79
:1018D0001AB1838A0B43838202E0838A8B4383821B
:1018E0007047028A4FF6F0731A400282028A0A4356
:1018F0000282704782894FF2FF731A408281828987
:101900000A438281704721B1828942F002028281BA
:1019100004E082894FF6FD731A4082817047028A83
:101920004FF6DF731A400282028A0A43028270472E
:1019300021B1028A42F48042028204E0028A4BF61C
:10194000FF731A4002827047C1F308028280704719
:1019500001468888C0F308007047818941F0010181
:1019600081817047028BD2B20283028B42EA01224C
:1019700002837047028B02F47F420283028B0A4388
:101980000283704721B1828A42F02002828204E001
:10199000828A4FF6DF731A408282704721B1828AB1
:1019A00042F01002828204E0828A4FF6EF731A40FE
:1019B0008282704721B1828A42F00802828204E06A
:1019C000828A4FF6F7731A408282704721B182896A
:1019D00042F40042828103E08289C2F30E028281D6
:1019E000704721B1828A42F40062828204E0828AD6
:1019F0004FF2FF731A4082827047828A4FF6FB7360
:101A00001A408282828A0A438282704721B1828A86
:101A100042F00202828204E0828A4FF6FD731A408D
:101A20008282704702460020B1F5007F00D100BFDE
:101A300013880B4201D0012000E00020704701F420
:101A40000072B2F5007F00D100BFCA430280704728
:101A500070B502460024002300250020A1F5106681
:101A60006A3E00D100BFC1F3421501F01F030126F9
:101A700006FA03F3012D02D19689334006E0022DC8
:101A800002D1168A334001E0968A33400C120126B7
:101A900006FA04F41688344013B10CB1012000E0BA
:101AA000002070BD10B500220023A1F510646A3C2F
:101AB00000D100BF0A1201249440A3B2DC43048089
:101AC00010BD0000003801400044004000480040C4
:101AD000004C0040005000407047704770470000C5
:101AE00000487047C401002070477546FFF7F8FFB3
:101AF000AE4605006946534620F00700854618B0FB
:101B000020B5FEF7DFFCBDE820404FF000064FF0A7
:101B100000074FF000084FF0000B21F00701AC4622
:101B2000ACE8C009ACE8C009ACE8C009ACE8C00941
:101B30008D4670470446AFF300802046FEF74FFB0A
:101B400001491820ABBEFEE7260002006C1B00080E
:101B500000000020D40000008C010008401C000898
:101B6000D400002054070000A801000800A24A0485
:101B7000000000000000000001020304060708093D
:101B8000E90400085D06000800000000006464002D
:101B9000010A000800000000000000000000000032
:101BA0000000000000000000000000000000000035
:101BB0000000000000000000000000000000000025
:101BC0000000000000000000000000000000000015
:101BD0000000000000000000000000000000000005
:101BE00000000000000000000000000000000000F5
:101BF00000000000000000000000000000000000E5
:101C000000000000000000000000000000000000D4
:101C100000000000000000000000000000000000C4
:101C200000000000000000000000000000000000B4
:101C3000010203040102030406070809020406085E
:04000005080001519D
:00000001FF
