:020000040800F2
:10000000F80A0020710E0008850B0008870B000815
:100010008B0B00088F0B0008930B000800000000FA
:10002000000000000000000000000000970B000826
:10003000990B0008000000009B0B0008CB13000880
:100040008B0E00088B0E00088B0E00088B0E00082C
:100050008B0E00088B0E00088B0E00088B0E00081C
:100060008B0E00088B0E00088B0E00088B0E00080C
:100070008B0E00088B0E00088B0E00088B0E0008FC
:100080008B0E00088B0E00088B0E00088B0E0008EC
:100090008B0E00088B0E00088B0E00088B0E0008DC
:1000A0008B0E00088B0E00088B0E00088B0E0008CC
:1000B0008B0E00088B0E00088B0E00088B0E0008BC
:1000C0008B0E00088B0E00088B0E00088B0E0008AC
:1000D0008B0E00088B0E00088B0E00084D110008D7
:1000E0008B0E00088B0E00088B0E0008000000002D
:1000F0000000000000000000000000000000000000
:1001000000000000000000008B0E00088B0E0008AD
:100110008B0E0008DD0F00088B0E00088B0E000808
:100120008B0E00088B0E00088B0E00088B0E00084B
:100130008B0E00088B0E00088B0E00088B0E00083B
:100140008B0E00088B0E00088B0E00088B0E00082B
:1001500000F002F800F05AF80AA090E8000C82447F
:100160008344AAF10107DA4501D100F04FF8AFF25C
:10017000090EBAE80F0013F0010F18BFFB1A43F085
:100180000103184764270000842700000A444FF049
:10019000000C10F8013B13F0070408BF10F8014BE6
:1001A0001D1108BF10F8015B641E05D010F8016B2B
:1001B000641E01F8016BF9D113F0080F1EBF10F88F
:1001C000014BAD1C0C1B09D16D1E58BF01F801CBB2
:1001D000FAD505E014F8016B01F8016B6D1EF9D535
:1001E0009142D6D37047000000230024002500264A
:1001F000103A28BF78C1FBD8520728BF30C148BF8A
:100200000B6070471FB51FBD10B510BD02F037FA67
:100210001146FFF7F7FF00F008F802F055FA03B4B3
:10022000FFF7F2FF03BC02F059FA10B500F0C6FC6C
:1002300000F0CBFC002010BD10B502460B4600219B
:10024000002400BF04E0505C204484B2481CC1B2CA
:100250009942F8DBE0B210BDF7480088012807D1C9
:10026000F648807E20B90120F449087048700BE000
:10027000F248807E012803D10020F049487003E055
:100280000020EE4908704870EB48408801280AD1E8
:10029000EA488078032802D00120E8494872032008
:1002A000E64988701BE0E448408802280AD1E34808
:1002B0008078042802D00120E04948720420DF49F8
:1002C00088700CE0DC48408848B9DC488078052814
:1002D00002D00120D94948720520D8498870D648F3
:1002E000808818B90120D549C8700EE0D2488088AE
:1002F000012803D10220D149C87006E0CE48808889
:10030000022802D10320CD49C870CB488079CB495F
:10031000C873C9480089012801D1487102E0002052
:10032000C6494871C4488089012802D1C34908716F
:1003300002E00020C1490871BF48C089012807D1E7
:10034000BE488078042815D10120BC49C87111E04D
:10035000B948C089022807D1B8488078032809D154
:100360000220B649C87105E0B348C08910B9002021
:10037000B249C871704770B588B0002500240026C6
:10038000A5208DF80400AD48407A012811D1AC4871
:100390000078401CAA49087008460078012803DA52
:1003A0005A208DF8040004E00020A5490870A349F4
:1003B000487248208DF805000E208DF806000020B8
:1003C0008DF8070077208DF808009C48C078012838
:1003D00004D124F06A0444F0600410E09748C07827
:1003E000022804D124F06A0444F0400407E0934852
:1003F000C078032803D124F06A0444F020048F4815
:100400004078012802D1A01CC4B201E0601CC4B233
:100410008DF8094089488078032804D124F0E0044D
:1004200044F0200410E085488078042804D124F0AA
:10043000E00444F0800407E080488078052803D178
:1004400024F0E00444F060047C48C07B10280ADB00
:100450007A48C07B202806DC24F01F047748C07B44
:1004600010382043C4B28DF80A4000208DF80B00EC
:100470008DF80C008DF80D008DF80E008DF80F0032
:100480008DF810000D2101A8FFF7D6FE8DF81100A0
:1004900000208DF812008DF81300FF208DF8140055
:1004A00000208DF815008DF816008DF817008DF8D6
:1004B00018008DF819008DF81A008DF81B008DF8C2
:1004C0001C00192101A8FFF7B7FEC043401CC0B2B1
:1004D0008DF81D005B485C4A01A9C369D02098478C
:1004E000002506E05848405DC04357494855681C00
:1004F000C5B21A2DF6DB54480078A52821D14F4803
:100500004078F0B15048C07944091CB900204B49EB
:10051000087510E0012C03D10120484908750AE054
:10052000032C03D103204549087504E0042C02D1B3
:100530000220424908754448807AC0F3C1013F480F
:100540004176414841793D4841753F48807900F006
:10055000200040B13C48807900F0400018B10121F2
:100560003648C17510E03848807900F0400018B175
:1005700002213248C17507E03348807900F020003D
:1005800010B103212D48C1752F48007D00F00100F6
:10059000E0B92D48007D00F00200B8B92A48007D7E
:1005A00000F0040090B92848007D00F0080068B908
:1005B0002548007D00F0100040B92348007D00F080
:1005C000200018B900211D48017656E001260025BB
:1005D00050E01D48407D00F0020018B11721174877
:1005E000017649E01848007D304028B105F10B0044
:1005F000C1B2124801763FE01348407AE12803D1A6
:1006000011210E48017637E00F48407AE22803D1E5
:1006100012210A4801762FE00B48407AE32803D1E3
:1006200013210648017627E00748407AE5280DD1D6
:100630001421024801761FE0900100202C010020C7
:10064000000000206401002047010020F748407AA4
:10065000F22803D11521F64801760DE0F348407ADF
:10066000F52803D11621F248017605E07006060E42
:10067000681CC5B2082DACDB00BFEE484088EC49D1
:10068000097D884203D1EA48007DEA494880E8486C
:10069000407DE8490882E648007E002802DDE44803
:1006A000007E488108B070BD10B5E148407901284E
:1006B00046D1E1484FF480510268E0489047DE4857
:1006C0004FF400610268DD489047DB484FF4005169
:1006D0000268DB489047D8484FF480514268D848B8
:1006E0009047D5484FF400410268D5489047D2481A
:1006F0004FF480414268D24890470120CD4908819B
:10070000CB4988720846007901280CD1CA484FF4B9
:1007100080610268C94890470120C649888101214B
:10072000C348817335E0C4484FF480614268C348D0
:1007300090470020BF4988810021BD48817328E08F
:10074000BD484FF480514268BC489047BA484FF4C6
:1007500000614268B9489047B7484FF40051426879
:10076000B7489047B4484FF480510268B448904766
:10077000B1484FF400414268B1489047AE484FF449
:1007800080410268AE4890470020AA490881A849E4
:10079000887210BD10B5002400BF01F021F8044696
:1007A000A348C07901286CD104F48060B0F5806F53
:1007B00034D1A448007880BBA348007840B99E4853
:1007C00080210268A148904701209F4908703DE0C0
:1007D0009D480078012839D19D480088401C9C49DB
:1007E000088008460088B0F5167F2FDD92488021EA
:1007F0004268964890479048402142689348904705
:1008000001209049087000208A49C8810846408923
:100810000A281BDA1F20488118E0FFE702208A49D6
:10082000087000208A490880864908708248802123
:100830004268864890478048402102688348904734
:1008400001207C49C88101217948C1727848C07A69
:10085000012825D17F480088401C7E490880084631
:10086000008878281CDD00207149C871002170487B
:10087000C17200206F49C8817649088072490870AA
:100880000EE06D4880214268704890476A484021D8
:1008900042686E48904700206E4908806C49088085
:1008A00010BD10B500246248007B012816D16A48AB
:1008B0000088401C6849088008460088782802DDC6
:1008C00001206649087064480088F0280DDD00208A
:1008D0006149088001206249087006E000205E49F5
:1008E00008805E4908705E490870002400F078FFB7
:1008F000044604F4006010B95A48007818B14C4816
:10090000007B01281ED10120494908720846007B5E
:10091000012828D15148007801280BD104F4006047
:1009200040B901204F4908704148807E40F00100E5
:100930003F4988764A480078012814D100203C4974
:10094000087210E000213A4801730020384908720B
:1009500004F4006038B10846807E20F001008876FB
:100960000020404908703248007A012809D13248F5
:100970004FF4006102683248904701212C4801730E
:1009800008E02D484FF4006142682D48904700214F
:100990002748017333480078012807D1254840894A
:1009A0000A280ADA21202349488106E021484089A3
:1009B000212802D100201F49488110BD10B51C48D4
:1009C0000079012818D11C484FF4807102681B4837
:1009D000904719484FF4007102681848904716482C
:1009E0004FF48061026815489047012110488173D7
:1009F00001201049888117E00F484FF48071426848
:100A00000E4890470C484FF4007142680B489047DD
:100A100009484FF480614268084890470021044823
:100A2000817300200349888110BD00004701002028
:100A30002C010020900100206401002000180140DA
:100A400000140140060000200700002000100140B3
:100A500004000020020000200C00002009000020FB
:100A60000A0000200800002010B500203C49487012
:100A70003C484FF4805142683B48904739484FF416
:100A8000004142683948904736484FF480414268F7
:100A90003648904733484FF40061426832489047E7
:100AA00030484FF480514268304890472D484FF409
:100AB000005142682D4890472A484FF4807142689F
:100AC0002948904727484FF40071426826489047CC
:100AD00024484FF480614268234890470020204911
:100AE0008872234908811F48402142682148904765
:100AF0001C484FF4806142681C4890470021184808
:100B0000C17200201A49C881002115488173002054
:100B10001749888110BD10B5012011494872002085
:100B2000887610481449026A642090470D4813499A
:100B3000026A642090470B481149026AFA209047E4
:100B400010BD10B5FFF788FB05480078012804D1D7
:100B5000FFF7AAFDFFF732FF01E0FFF785FF10BDA9
:100B60002C01002064010020001801400014014005
:100B70009001002000100140A3080008950700081C
:100B800077030008704700BFFEE700BFFEE700BF25
:100B9000FEE700BFFEE770477047704710B500F0F2
:100BA00028FC00F0CCF900F06CFA00F06EFB00F0CD
:100BB0006FFC00F093FD002010BD000010B5FFF7A2
:100BC000EDFFFFF7A8FF002010BD0AE00549486AC5
:100BD000804700F07FFD0448006810B102480068BB
:100BE0008047F3E764010020100000200CB50020CE
:100BF000019000909248006840F48030904908606D
:100C000000BF8F48006800F4003000900198401C3D
:100C10000190009818B90198B0F5A06FF1D18848FB
:100C2000006800F4003010B10120009001E00020C5
:100C30000090009801285CD18248006840F01000C4
:100C4000804908600846006820F0030008600846F4
:100C5000006840F0020008607948406878494860C0
:100C60000846406848600846406840F48060486034
:100C70000846C06A744908407149C8620846C06A9B
:100C8000724908436E49C8620846006840F08060B7
:100C9000086000BF6A48006800F000600028F9D0D2
:100CA0006748406820F47C10654948600846406801
:100CB00040F4E81048600846006840F08070086022
:100CC00000BF5F48006800F000700028F9D05C4861
:100CD000406820F003005A4948600846406840F0E8
:100CE0000200486000BF5648406800F00C00082829
:100CF000F9D10CBD10B5FFF779FF10BD10B5504804
:100D0000006840F001004E490860084640685049BC
:100D100008404B494860084600684E490840484929
:100D200008600846006820F4802008600846406893
:100D300020F4FE0048600846006820F0A0500860DB
:100D40004FF47F0088600020C862FFF7D3FF4FF0A8
:100D500000604149086010BDF0B50021002000236B
:100D60000024002200250026354F7F6807F00C0183
:100D700021B1042908D008294BD10BE0374FDFF807
:100D8000E0C0CCF800704AE0364FDFF8D4C0CCF8B1
:100D9000007044E02A4F7F6807F47010284F7F6886
:100DA00007F48033800C0D2801D0801C00E0062061
:100DB00033B92D4F4743DFF8A8C0CCF8007027E0C7
:100DC0001F4FFF6A07F480341D4FFF6A07F00F07BB
:100DD0007A1C44B9234FB7FBF2F74743DFF880C0D2
:100DE000CCF8007014E0164FFF6AC7F303177D1CA0
:100DF000134FFF6AC7F30327BE1C1A4FB7FBF5F763
:100E00007743B7FBF2F74743DFF854C0CCF80070E4
:100E100005E0124FDFF848C0CCF8007000BF00BFFB
:100E2000074F7F68C7F30317DFF840C01CF80710AF
:100E30000B4F3F68CF40DFF828C0CCF80070F0BD02
:100E4000001002400020024000F0FEFF44060100B6
:100E50000000FFF0FFFFF6FE08ED00E000127A0050
:100E60001400002040787D0100093D00180000209A
:100E70000948804709480047FEE7FEE7FEE7FEE72E
:100E8000FEE7FEE7FEE7FEE7FEE7FEE7044805496A
:100E9000054A064B70470000FD0C00085101000890
:100EA000F8040020F80A0020F8060020F8060020C8
:100EB000704752490860704770B505460E460024D9
:100EC00002204F49086000BF0CE0295D4D4801F049
:100ED00005FB00BF40214B4801F06EFB0028F9D014
:100EE000601CC4B2B442F0DB02204549091D086011
:100EF00070BD08B54FF4E06000F018FD35208DF8A6
:100F0000000004208DF8020001208DF803006846DF
:100F100000F011FD08BD08B50121202001F03DF9C8
:100F200003208DF8020010208DF803000220ADF898
:100F3000000069463248103800F0C6FD08BD00B513
:100F400085B00121312001F028F90121080501F0C7
:100F500031F94FF48050ADF8100018208DF81300CF
:100F600003208DF8120004A9274800F0ADFD0420ED
:100F7000ADF810008DF8130004A92148103800F0D6
:100F8000A3FD4FF4165000900020ADF80400ADF81A
:100F90000600ADF80800ADF80C000C20ADF80A0012
:100FA0006946184801F0A1F9012240F2255115487F
:100FB00001F033FA0121134801F023FA40211148CE
:100FC00001F007FBFFF7A7FFFFF793FF0F4910485A
:100FD000816110480E49486105B000BD10B540F26E
:100FE0002551084801F0FEFA38B1064801F07AFAB6
:100FF000C4B2204601490968884710BD2800002076
:10100000101401400050004000100140B90E0008CB
:1010100064010020B30E000870475449086070470F
:1010200070B505460E4600244FF4806050490860B4
:1010300000BF0CE0295D4F4801F050FA00BF40218D
:101040004C4801F0B9FA0028F9D0601CC4B2B4428F
:10105000F0DB4FF480604649091D086070BD08B59B
:101060004FF4E06000F062FC27208DF800000220C1
:101070008DF8020001208DF80300684600F05BFC4B
:1010800008BD00B585B00121252001F086F80121B9
:10109000880401F08FF80121374800F0E4FD4FF497
:1010A0008070ADF8100018208DF8130003208DF823
:1010B000120004A9314800F007FD4FF40070ADF8AC
:1010C000100004208DF8130004A92C4800F0FCFC4B
:1010D00004A92A4800F0F8FC4FF48060ADF8100035
:1010E00010208DF8130003208DF8120004A9204869
:1010F000103800F0E9FC4FF4165000900020ADF8D5
:101100000400ADF80600ADF80800ADF80C000C20A6
:10111000ADF80A006946174801F0E7F8012240F2ED
:101120002551144801F079F90121124801F069F9BB
:101130004021104801F04DFAFFF791FF1049114886
:10114000016111480F49C86005B000BD10B540F2FB
:101150002551084801F046FA38B1064801F0C2F9B5
:10116000C4B2204601490968884710BD2C00002000
:1011700010080140004800403000140000140140F5
:1011800021100008640100201B100008014606E041
:10119000002000E0401C40F2EE229042FAD30A1EEA
:1011A000A1F1010399B2F3D170472DE9F04706464A
:1011B0000F4690460024A14600254FF400504D49AB
:1011C0000860800008600620FFF7E0FF00BF4BE0EA
:1011D0004FF4804047490860E11704EB5171C91092
:1011E000A4EBC10131B92046E11704EB5171C910DC
:1011F00017F8019009F0010028B14FF400503D4963
:10120000091F086003E04FF400503A4908604FEAB4
:1012100069090620FFF7BAFF4FF480403549091FDE
:1012200008600620FFF7B2FF6D104FF4805131487F
:10123000143800F0DAFC012802D145F0800501E005
:1012400025F08005601CC11700EB5171C910A0EB9F
:10125000C10139B934B1C11700EB5171C910491E30
:1012600008F80150601CC4B2B442B1DB0620FFF79D
:101270008DFF4FF480401F4908604000091F08603F
:101280008010091D0860BDE8F08708B5012108201D
:1012900000F083FF03208DF8020010208DF803007A
:1012A000C002ADF8000069461248143800F00CFC8A
:1012B0004FF48040ADF8000069460E48143800F045
:1012C00003FC4FF40050ADF800006946094814389B
:1012D00000F0FAFB4FF400400649091F0860801037
:1012E000091D08604000091F086003480349C861E0
:1012F00008BD0000140C0140AB110008640100207F
:10130000704710B5544A1278132A00DD10BD002230
:10131000524B514C247803F834201A464E4B1B781C
:1013200002EBC30250704D4A4B4B1B7802EBC302D9
:1013300090704A4A484B1B7802EBC3025160464A00
:101340001278521C444B1A7000BFDFE7002020E0E7
:10135000424901EBC0014978C9B1404901EBC001E4
:101360004978491E3D4A02EBC00251703B4901EBEE
:10137000C001497859B9394901EBC0018978374A28
:1013800002EBC00251700121344A02F83010411CB6
:10139000C8B2314909788842DADB704710B50024B9
:1013A0000EE02E4810F8340040B12C4901EBC40186
:1013B000486880470020294901F83400601CC4B205
:1013C000254800788442ECDB10BD10B5FFF7BEFF66
:1013D0002348006820B122480068401E2049086068
:1013E00010BD1F49086000BF1D4909680029FBD1D5
:1013F000704730B51B4800686422B0FBF2F1B1F1D0
:10140000807F00D31DE021F07F40401E4FF0E0229E
:10141000506150170F22002807DA13071D0E124BD8
:1014200000F00F04241F1D5503E013071C0E0F4B83
:101430001C5400BF00204FF0E02290610720106193
:1014400000BF0B480B4908620B490A484162AFF2E2
:101450006D01816230BD00003000002038000020A6
:10146000340000201400002018ED00E000E400E04B
:1014700003130008640100209D13000810B5044602
:10148000204600F0BBFB10BD416170470161704711
:1014900008B50121402000F080FE03208DF80200F5
:1014A00010208DF803004FF47F40ADF8000069462E
:1014B000214800F009FB0121202000F06EFE4FF4CE
:1014C0007C40ADF8000069461C4800F0FDFA01219F
:1014D000102000F062FEC020ADF8000069461848F8
:1014E00000F0F2FA0121042000F057FEE320ADF8ED
:1014F00000006946124800F0E7FA0121082000F0D8
:101500004CFE0720ADF8000069460D4800F0DCFAFB
:101510000121082000F041FE8020ADF8000069465E
:10152000074800F0D1FA07480749086007484860B3
:101530000748886008BD0000001801400014014001
:10154000001001408D140008640100208914000877
:101550007D14000868490978FA2907DA66490A788B
:101560000978491C644B1970644988540221644A03
:10157000118070476248008850B161480088401E61
:101580005F4908800846008810B901205D498870CD
:10159000704710B500245B48007B00281CDD594AC9
:1015A000127B921E91B2574A106900F079F90446F5
:1015B00054480269007B801E14542112514802696C
:1015C000007B401E11544F4B197B18694E4B9A6992
:1015D000904700204B49087310BD70B500240025CA
:1015E0000220484908700846807800B970BD42481A
:1015F0000078082800DAF9E73DE02046611CCCB20B
:101600003E49085C4149498A884201D005B932E027
:101610003A48005D032802D0062804D101E00825DD
:1016200002E0082500E000BF00BF082D22DB33499F
:101630002144481E294600F033F9D8B92F48005DEF
:10164000032802D006280ED106E02C492144481E6A
:10165000294600F089F807E028492144481E294618
:1016600000F06BF800E000BF00BFFFF792FF681EBC
:101670002044C4B200BF204800788442BDDB002073
:101680001D4908701F49887000BFAFE770B500247E
:10169000002503201B4908701848457800BF11E059
:1016A0001B4810F83400A8420AD1164B9979986863
:1016B000174B03EBC4035A689047FFF76AFF03E038
:1016C000601CC4B2032CEBDB00BF70BD10B500F092
:1016D00025F810BD10B5FFF780FF10BD10B5FFF75E
:1016E000F5FF094841690B48884707480A49026ADB
:1016F0000520904710BD0000F80000209E02002049
:10170000FA000020FC00002064010020900100206D
:10171000D8000020551500087515000810B50024E4
:1017200000F05EF800F00F04082C00DC04B901247E
:10173000284844822849086010BD70B504460D460B
:101740000026082D01DA022070BDE178A07801EBB7
:10175000002086B22049096801EB46000222211DC3
:1017600000F0BAF80020EFE72DE9F04104460E46FC
:1017700000270025082E02DA0220BDE8F081E1787A
:10178000A07801EB0020C7B26179207901EB00203D
:10179000C5B2114A126802EB4701104A1269D01C07
:1017A0002A4600F0AFF820780C4909690870032038
:1017B0000A49096948706806000E08490969887075
:1017C000052000EB4500054908730020D5E70246D7
:1017D000002070479001002014010020FC00002030
:1017E00070B50025002429488168294888470546A6
:1017F00005F0080008B144F0010405F0100008B13C
:1018000044F0400405F0200008B144F080041F4873
:10181000816820488847054605F0010008B144F07A
:10182000020405F0020008B144F0040405F02000B1
:1018300008B144F0080405F0400008B144F0100479
:1018400005F0800008B144F0200410488168124877
:101850008847054605F0010008B144F4807405F09E
:10186000020008B144F4007405F0040008B144F427
:1018700080640648816809488847054605F080006D
:1018800008B144F40064204670BD000064010020EB
:101890000010014000080140000C01400018014008
:1018A00070B502460C46FF25FF2309E012F8010B34
:1018B00080EA03010648405C80EA05030548455C70
:1018C000201EA4F10106B4B2F0D143EA052070BD98
:1018D000E8260008E827000830B50346002000BFCE
:1018E0000AE04400641C0D5D11F8104005EB04246F
:1018F00023F81040441CE0B202EBD275B0EB650F48
:10190000EFDB30BD30B50346002000BF0BE031F8FF
:101910001040241203F8104011F810504400641CC9
:101920001D55441CE0B29042F1DB30BD314901430A
:10193000314A1160704770B5002100230F22C4782E
:101940000CB32D4C246804F4E064C4F5E064210A6F
:10195000C1F10403CA40447804FA03F184781440C6
:1019600021430901254C0678A155047804F01F0590
:101970000124AC4005786D114FF0E02606EB85059B
:10198000C5F8004109E0047804F01F050124AC40CB
:101990001B4D0678761145F8264070BD194A0A405D
:1019A0000243154B1B1F1A60704739B1124A121DB2
:1019B00012680243104B1B1D1A6006E00E4A121DEE
:1019C000126882430C4B1B1D1A607047042808D113
:1019D0004FF0E021096941F004014FF0E02211616C
:1019E00007E04FF0E021096921F004014FF0E02207
:1019F000116170470000FA050CED00E000E400E022
:101A000080E100E080FFFF1F10B50446CA48844211
:101A100008D10121042000F0E7FB0021042000F0A0
:101A2000E3FB46E0C548844208D10121082000F0CC
:101A3000DBFB0021082000F0D7FB3AE0C0488442DD
:101A400008D10121102000F0CFFB0021102000F070
:101A5000CBFB2EE0BB48844208D10121202000F0BE
:101A6000C3FB0021202000F0BFFB22E0B6488442E7
:101A700008D10121402000F0B7FB0021402000F0F8
:101A8000B3FB16E0B148844208D10121802000F068
:101A9000ABFB0021802000F0A7FB0AE0AC488442A9
:101AA00007D10121801500F09FFB0021A01500F057
:101AB0009BFB10BD10B50121084600F095FB0021ED
:101AC000012000F091FB10BD2DE9F04102460025F8
:101AD0000026002000230024002791F803C00CF00A
:101AE0000F0591F803C01CF0100F03D091F802C04D
:101AF0004CEA050591F800C0BCF1000F31D0146824
:101B000000202BE04FF0010C0CFA00F3B1F800C0FC
:101B10000CEA03069E4220D183004FF00F0C0CFA12
:101B200003F7BC4305FA03FC4CEA040491F803C034
:101B3000BCF1280F06D14FF0010C0CFA00FCC2F8E2
:101B400014C00AE091F803C0BCF1480F05D14FF072
:101B5000010C0CFA00FCC2F810C0401C0828D1D3BC
:101B60001460B1F800C0BCF1FF0F34DD54680020F0
:101B70002EE000F1080C4FF0010808FA0CF3B1F860
:101B800000C00CEA03069E4221D183004FF00F0CE7
:101B90000CFA03F7BC4305FA03FC4CEA040491F881
:101BA00003C0BCF1280F05D100F1080C08FA0CF8AD
:101BB000C2F8148091F803C0BCF1480F07D100F1BE
:101BC000080C4FF0010808FA0CF8C2F81080401C0D
:101BD0000828CED35460BDE8F0814FF6FF71018034
:101BE000022181700421C170704702460020936871
:101BF0000B4201D0012000E00020704701468868B8
:101C000080B2704702460020D3680B4201D0012009
:101C100000E0002070470146C86880B2704701614B
:101C20007047416170470AB1016100E0416170474E
:101C3000C16070474FF480320A43826181618261E2
:101C400082698269704702460020424B18684FF64D
:101C50008073184040EA021008433E4B18607047FA
:101C60003D49C8617047F0B50A46002300240021B1
:101C7000002500F00046B6F1004F02D1354EF16963
:101C800001E0344E7168C0F3034583B200F440169E
:101C9000B6F5401F08D121F070612E4E766826F00F
:101CA00070662C4F7E6012E000F48016B6F5801F3F
:101CB00006D1032606FA05F4A14341F0706106E05F
:101CC000460D360103FA06F6B14341F0706122B1C8
:101CD000460D360103FA06F6314300F00046B6F130
:101CE000004F02D11B4EF16101E01A4E7160F0BD50
:101CF00030B500228B071C0F0F2303FA04F2154B9B
:101D000008338C1053F824309343124C08348D1050
:101D100044F8253023468C1053F824308C07240FC8
:101D200000FA04F423430B4C08348D1044F825309A
:101D300030BD0A490860704700080140000C0140AE
:101D4000001001400014014000180140001C014037
:101D5000002001400000014000002042DC00204241
:101D6000F948006840F00100F749086008464068FB
:101D7000F6490840F449486008460068F4490840BC
:101D8000F14908600846006820F480200860084691
:101D9000406820F4FE0048600846006820F0A0502B
:101DA00008604FF47F0088600020C8627047E649F1
:101DB000096821F48031E44A11601146096821F470
:101DC00080211160B0F5803F03D0B0F5802F0ED197
:101DD00006E0DD49096841F48031DB4A116007E023
:101DE000D949096841F4A021D74A116000E000BF39
:101DF00000BF704710B501460022002300204A11A1
:101E0000012A02D1D04C236806E0022A02D1CE4C2E
:101E1000236A01E0CC4C636A01F01F020124944064
:101E20001C4201D0012000E0002010BD38B5002088
:101E300000900024002500BF3120FFF7DBFF05469E
:101E40000098401C00900098B0F5A06F01D0002DC4
:101E5000F2D03120FFF7CEFF08B1012400E00024CA
:101E6000204638BD01460020B74A106820F0F8002F
:101E700040EAC10010607047B649086070470246EA
:101E80000020B14B586820F4741042EA0103184353
:101E9000AD4B58607047AF49086670470246002056
:101EA000A94BD86AAC4B184042EA01031843A64B31
:101EB000D862704701460020A34AD06A20F0F000A3
:101EC0000843D0627047014600209F4AD06A20F440
:101ED00070600843D06270479E498866704701462B
:101EE0000020994AD06A20F470400843D0627047BD
:101EF00098490867704701460020934A506820F0CF
:101F000003000843506070478F48406800F00C00A1
:101F10007047014600208C4A506820F0F0000843CA
:101F20005060704701460020874A506820F4E06006
:101F300008435060704701460020834A506820F4EF
:101F4000605040EAC1005060704729B17E4A527A21
:101F500002437D4B5A7204E07B4A527A82437A4BA9
:101F60005A7270477D490860704701460020764AE2
:101F7000506820F44040084350607047784908603A
:101F800070477749091D086070470021754A117034
:101F90006D4A82F82010012802D0042808D103E0FD
:101FA0000121704A117004E005216E4A117000E0B1
:101FB00000BF00BF70476C49086070476249096AFA
:101FC0000143614A116270476749443908607047AC
:101FD0002DE9F041002100220025002300260024E5
:101FE00000278C46DFF86081D8F8048008F00C01E7
:101FF00021B1042907D0082959D109E0DFF86C8103
:10200000C0F8008058E0DFF86881C0F8008053E035
:10201000DFF83481D8F8048008F47012DFF82881E2
:10202000D8F8048008F48035920C0D2A01D0921C57
:1020300000E0062235B9DFF83C8102FB08F8C0F861
:10204000008033E0DFF80081D8F82C8008F4803677
:10205000DFF8F480D8F82C8008F00F0808F10104AC
:1020600046B9DFF80C81B8FBF4F808FB02F8C0F8B9
:1020700000801BE0DFF8D080D8F82C80C8F303186C
:1020800008F10107DFF8C080D8F82C80C8F30328D6
:1020900008F1020CDFF8D880B8FBF7F808FB0CF861
:1020A000B8FBF4F808FB02F8C0F8008004E0DFF8A1
:1020B000BC80C0F8008000BF00BFDFF88C80D8F87B
:1020C000048008F0F0010909DFF8AC8018F801304D
:1020D000D0F8008028FA03F8C0F80480DFF86880A0
:1020E000D8F8048008F4E061090ADFF88C8018F859
:1020F0000130D0F8048028FA03F8C0F80880DFF82F
:102100004880D8F8048008F46051C90ADFF8688074
:1021100018F80130D0F8048028FA03F8C0F80C80D1
:10212000DFF82480D8F8048008F44041890BDFF8F8
:102130004C8018F80130D0F80C80B8FBF3F8C0F8E8
:102140001080BDE8F0810000001002400000FFF0A8
:10215000FFFFF6FE00004242F0FFFEFFD8004242C1
:10216000C4054242201002408004424200127A001C
:1021700040787D0100093D00180100202801002061
:1021800029B1354A52690243334B5A6104E0324A5D
:1021900052698243304B5A61704729B12E4A926985
:1021A00002432D4B9A6104E02B4A926982432A4BE9
:1021B0009A61704729B1284AD2690243264BDA61F5
:1021C00004E0254AD2698243234BDA61704729B182
:1021D000214A926A0243204B9A6204E01E4A926AA4
:1021E00082431D4B9A62704729B11B4AD268024351
:1021F000194BDA6004E0184AD2688243164BDA6061
:10220000704729B1144A12690243134B1A6104E062
:10221000114A12698243104B1A6170470F490860D6
:1022200070470F49C86470470B49C87170470A4826
:10223000406A40F0807008494862704701460020BB
:10224000054A92680A4201D0012000E00020704750
:102250000149887270470000001002404004424269
:102260000000424210B50446FB48844209D10121D6
:102270008803FFF7B9FF00214FF48040FFF7B4FF58
:1022800032E0F648844209D101214804FFF7B9FF42
:1022900000214FF40030FFF7B4FF25E0F0488442FE
:1022A00009D101218804FFF7ACFF00214FF4802001
:1022B000FFF7A7FF18E0EB48844209D10121C804C9
:1022C000FFF79FFF00214FF40020FFF79AFF0BE07C
:1022D000E548844208D101210805FFF792FF00215B
:1022E0004FF48010FFF78DFF10BD2DE9F04786B049
:1022F00005460E460024A24600BFA1460027B0892D
:1023000000B100BF2F462C8A4CF6FF700440F088C5
:1023100004432C82AC894EF6F3100440B088318916
:102320000843718908430443AC81AC8A4FF6FF40EF
:102330000440B0890443AC8201A8FFF749FEC648B7
:10234000874202D1DDF810A001E0DDF80CA0A889D9
:1023500010F4004F08D00AEBCA0000EB0A103168F5
:102360004900B0FBF1F807E00AEBCA0000EB0A10E5
:1023700031688900B0FBF1F86420B8FBF0F004018B
:102380002009642101FB1089A88910F4004F08D0AE
:10239000322000EBC900B0FBF1F000F0070004436D
:1023A00008E0322000EB09106421B0FBF1F000F0EE
:1023B0000F0004432C8106B0BDE8F0874FF416519E
:1023C000016000218180C18001810C2141810021B7
:1023D0008181704710B502460020108A4FF2FF033A
:1023E00018400B884C8823438C882343CC88234394
:1023F0001843108210BD0021018041808180C1807E
:10240000704721B1828942F40052828104E08289BE
:102410004DF6FF731A4082817047F0B503460024E1
:10242000002600250020A1F510676A3F00D100BFFB
:102430001846C1F3421401F01F06012707FA06F5FA
:10244000012C01D10C3004E0022C01D1103000E04D
:1024500014301AB107682F43076002E00768AF43E2
:102460000760F0BD1AB1838A0B43838202E0838A3E
:102470008B4383827047028A4FF6F0731A400282C0
:10248000028A0A430282704782894FF2FF731A4020
:10249000828182890A438281704721B1828942F018
:1024A0000202828104E082894FF6FD731A40828124
:1024B0007047028A4FF6DF731A400282028A0A438B
:1024C0000282704721B1028A42F48042028204E013
:1024D000028A4BF6FF731A4002827047C1F308026A
:1024E0008280704701468888C0F308007047818960
:1024F00041F0010181817047028BD2B20283028BCD
:1025000042EA012202837047028B02F47F42028377
:10251000028B0A430283704721B1828A42F0200273
:10252000828204E0828A4FF6DF731A40828270470B
:1025300021B1828A42F01002828204E0828A4FF640
:10254000EF731A408282704721B1828A42F00802FA
:10255000828204E0828A4FF6F7731A4082827047C3
:1025600021B1828942F40042828103E08289C2F370
:102570000E028281704721B1828A42F40062828217
:1025800004E0828A4FF2FF731A4082827047828A87
:102590004FF6FB731A408282828A0A438282704716
:1025A00021B1828A42F00202828204E0828A4FF6DE
:1025B000FD731A408282704702460020B1F5007F09
:1025C00000D100BF13880B4201D0012000E00020A1
:1025D000704701F40072B2F5007F00D100BFCA431A
:1025E0000280704770B502460024002300250020B9
:1025F000A1F510666A3E00D100BFC1F3421501F09B
:102600001F03012606FA03F3012D02D196893340F8
:1026100006E0022D02D1168A334001E0968A33404B
:102620000C12012606FA04F41688344013B10CB1DA
:10263000012000E0002070BD10B500220023A1F5AC
:1026400010646A3C00D100BF0A1201249440A3B276
:10265000DC43048010BD000000380140004400400D
:1026600000480040004C0040005000407047704758
:10267000704700000048704794040020704775467A
:10268000FFF7F8FFAE4605006946534620F0070005
:10269000854618B020B5FEF7F9FBBDE820404FF0A5
:1026A00000064FF000074FF000084FF0000B21F03C
:1026B0000701AC46ACE8C009ACE8C009ACE8C00909
:1026C000ACE8C0098D46704710B50446AFF30080F2
:1026D0002046BDE81040FDF7A2BD000001491820CA
:1026E000ABBEFEE72600020000C1814001C0804170
:1026F00001C0804100C1814001C0804100C18140D2
:1027000000C1814001C0804101C0804100C18140C1
:1027100000C1814001C0804100C1814001C08041B1
:1027200001C0804100C1814001C0804100C18140A1
:1027300000C1814001C0804100C1814001C0804191
:1027400001C0804100C1814000C1814001C0804181
:1027500001C0804100C1814001C0804100C1814071
:1027600000C1814001C0804101C0804100C1814061
:1027700000C1814001C0804100C1814001C0804151
:1027800001C0804100C1814000C1814001C0804141
:1027900001C0804100C1814001C0804100C1814031
:1027A00000C1814001C0804100C1814001C0804121
:1027B00001C0804100C1814001C0804100C1814011
:1027C00000C1814001C0804101C0804100C1814001
:1027D00000C1814001C0804100C1814001C08041F1
:1027E00001C0804100C1814000C0C101C30302C2D9
:1027F000C60607C705C5C404CC0C0DCD0FCFCE0E41
:102800000ACACB0BC90908C8D81819D91BDBDA1AB0
:102810001EDEDF1FDD1D1CDC14D4D515D71716D620
:10282000D21213D311D1D010F03031F133F3F23290
:1028300036F6F737F53534F43CFCFD3DFF3F3EFE00
:10284000FA3A3BFB39F9F83828E8E929EB2B2AEA70
:10285000EE2E2FEF2DEDEC2CE42425E527E7E626E0
:1028600022E2E323E12120E0A06061A163A3A26250
:1028700066A6A767A56564A46CACAD6DAF6F6EAEC0
:10288000AA6A6BAB69A9A86878B8B979BB7B7ABA30
:10289000BE7E7FBF7DBDBC7CB47475B577B7B676A0
:1028A00072B2B373B17170B0509091519353529210
:1028B00096565797559594549C5C5D9D5F9F9E5E80
:1028C0005A9A9B5B99595898884849894B8B8A4AF0
:1028D0004E8E8F4F8D4D4C8C448485458747468660
:1028E0008242438341818040082900080000002083
:1028F0002C0100008C010008642900082C01002034
:10290000CC090000E8010008011013430B120884F1
:10291000A24A04100B0102030406070809B10E1CA9
:102920000819101C811364649B011310018F32037A
:102930001369173308061A3B0832101ACF0813A47C
:1029400001322042FA320232053B9E0214114B98AA
:102950000308A9FC29040009000607080902040667
:04296000080000006B
:04000005080001519D
:00000001FF
